:020000040000FA
:100000008316031371308F0083168601FF3085003D
:100010008030870083160317880189018312031338
:1000200086010508A000871B1128A00A2008A1004E
:10003000031D1B284A202F20270886002808870038
:10004000222013280530A200FF30A400FF30A600B4
:10005000A60B2828A40B2628A20B24280800A801F8
:10006000A7016430A102031C3728A80A3128643094
:10007000A1070F30A7000A30A102031C4328A70ADA
:100080000F30A7043B280A30A107F030A70521084C
:10009000A70408001E30AE0001308600083087003B
:1000A00089200230860004308700892004308600D1
:1000B00002308700892008308600013087008920BF
:1000C0009030860000308700892060308600003044
:1000D0008700892090308600003087008920083012
:1000E00086000130870089200430860002308700B6
:1000F0008920023086000430870089200130860084
:10010000083087008920871B1128AE0B882811280A
:100110004C28FF30A300FF30A500A40B8D28A20BB4
:020120008B282A
:040122000034003471
:02400E00F23787
:02401000FF3F70
:00000001FF
